{
  "contractName": "ExchangeRates",
  "abi": [
    {
      "constant": false,
      "inputs": [],
      "name": "renounceOwnership",
      "outputs": [],
      "payable": false,
      "stateMutability": "nonpayable",
      "type": "function"
    },
    {
      "constant": true,
      "inputs": [],
      "name": "owner",
      "outputs": [
        {
          "name": "",
          "type": "address"
        }
      ],
      "payable": false,
      "stateMutability": "view",
      "type": "function"
    },
    {
      "constant": false,
      "inputs": [
        {
          "name": "_newOwner",
          "type": "address"
        }
      ],
      "name": "transferOwnership",
      "outputs": [],
      "payable": false,
      "stateMutability": "nonpayable",
      "type": "function"
    },
    {
      "inputs": [],
      "payable": false,
      "stateMutability": "nonpayable",
      "type": "constructor"
    },
    {
      "anonymous": false,
      "inputs": [
        {
          "indexed": false,
          "name": "ccy1",
          "type": "string"
        },
        {
          "indexed": false,
          "name": "rateFactor1",
          "type": "uint256"
        },
        {
          "indexed": false,
          "name": "ccy2",
          "type": "string"
        },
        {
          "indexed": false,
          "name": "rateFactor2",
          "type": "uint256"
        }
      ],
      "name": "SetRate",
      "type": "event"
    },
    {
      "anonymous": false,
      "inputs": [
        {
          "indexed": true,
          "name": "previousOwner",
          "type": "address"
        }
      ],
      "name": "OwnershipRenounced",
      "type": "event"
    },
    {
      "anonymous": false,
      "inputs": [
        {
          "indexed": true,
          "name": "previousOwner",
          "type": "address"
        },
        {
          "indexed": true,
          "name": "newOwner",
          "type": "address"
        }
      ],
      "name": "OwnershipTransferred",
      "type": "event"
    },
    {
      "constant": false,
      "inputs": [
        {
          "name": "_ccy1",
          "type": "string"
        },
        {
          "name": "_rateFactor1",
          "type": "uint256"
        },
        {
          "name": "_ccy2",
          "type": "string"
        },
        {
          "name": "_rateFactor2",
          "type": "uint256"
        }
      ],
      "name": "setRate",
      "outputs": [
        {
          "name": "",
          "type": "bool"
        }
      ],
      "payable": false,
      "stateMutability": "nonpayable",
      "type": "function"
    },
    {
      "constant": true,
      "inputs": [
        {
          "name": "_ccy1",
          "type": "string"
        },
        {
          "name": "_ccy2",
          "type": "string"
        }
      ],
      "name": "getRate",
      "outputs": [
        {
          "name": "rateFactor1",
          "type": "uint256"
        },
        {
          "name": "rateFactor2",
          "type": "uint256"
        }
      ],
      "payable": false,
      "stateMutability": "view",
      "type": "function"
    }
  ],
  "bytecode": "0x608060405234801561001057600080fd5b50336000806101000a81548173ffffffffffffffffffffffffffffffffffffffff021916908373ffffffffffffffffffffffffffffffffffffffff160217905550610d36806100606000396000f30060806040526004361061006d576000357c0100000000000000000000000000000000000000000000000000000000900463ffffffff16806355a2559414610072578063715018a61461014d5780638da5cb5b14610164578063e3f2804f146101bb578063f2fde38b14610285575b600080fd5b34801561007e57600080fd5b50610133600480360381019080803590602001908201803590602001908080601f016020809104026020016040519081016040528093929190818152602001838380828437820191505050505050919291929080359060200190929190803590602001908201803590602001908080601f0160208091040260200160405190810160405280939291908181526020018383808284378201915050505050509192919290803590602001909291905050506102c8565b604051808215151515815260200191505060405180910390f35b34801561015957600080fd5b50610162610660565b005b34801561017057600080fd5b50610179610762565b604051808273ffffffffffffffffffffffffffffffffffffffff1673ffffffffffffffffffffffffffffffffffffffff16815260200191505060405180910390f35b3480156101c757600080fd5b50610268600480360381019080803590602001908201803590602001908080601f0160208091040260200160405190810160405280939291908181526020018383808284378201915050505050509192919290803590602001908201803590602001908080601f0160208091040260200160405190810160405280939291908181526020018383808284378201915050505050509192919290505050610787565b604051808381526020018281526020019250505060405180910390f35b34801561029157600080fd5b506102c6600480360381019080803573ffffffffffffffffffffffffffffffffffffffff169060200190929190505050610b8f565b005b60006102d2610cf0565b6000809054906101000a900473ffffffffffffffffffffffffffffffffffffffff1673ffffffffffffffffffffffffffffffffffffffff163373ffffffffffffffffffffffffffffffffffffffff1614151561032d57600080fd5b6000851415801561033f575060008314155b151561034a57600080fd5b6040805190810160405280868152602001848152509050806001876040518082805190602001908083835b60208310151561039a5780518252602082019150602081019050602083039250610375565b6001836020036101000a0380198251168184511680821785525050505050509050019150509081526020016040518091039020856040518082805190602001908083835b60208310151561040357805182526020820191506020810190506020830392506103de565b6001836020036101000a0380198251168184511680821785525050505050509050019150509081526020016040518091039020600082015181600001556020820151816001015590505060016002876040518082805190602001908083835b6020831015156104875780518252602082019150602081019050602083039250610462565b6001836020036101000a0380198251168184511680821785525050505050509050019150509081526020016040518091039020856040518082805190602001908083835b6020831015156104f057805182526020820191506020810190506020830392506104cb565b6001836020036101000a038019825116818451168082178552505050505050905001915050908152602001604051809103902060006101000a81548160ff0219169083151502179055507f396fb1cc46c3c6369b602f5bb03e5e1d8bb5fb1f15cf720b9f4375338e89fe4286868686604051808060200185815260200180602001848152602001838103835287818151815260200191508051906020019080838360005b838110156105af578082015181840152602081019050610594565b50505050905090810190601f1680156105dc5780820380516001836020036101000a031916815260200191505b50838103825285818151815260200191508051906020019080838360005b838110156106155780820151818401526020810190506105fa565b50505050905090810190601f1680156106425780820380516001836020036101000a031916815260200191505b50965050505050505060405180910390a16001915050949350505050565b6000809054906101000a900473ffffffffffffffffffffffffffffffffffffffff1673ffffffffffffffffffffffffffffffffffffffff163373ffffffffffffffffffffffffffffffffffffffff161415156106bb57600080fd5b6000809054906101000a900473ffffffffffffffffffffffffffffffffffffffff1673ffffffffffffffffffffffffffffffffffffffff167ff8df31144d9c2f0f6b59d69b8b98abd5459d07f2742c4df920b25aae33c6482060405160405180910390a260008060006101000a81548173ffffffffffffffffffffffffffffffffffffffff021916908373ffffffffffffffffffffffffffffffffffffffff160217905550565b6000809054906101000a900473ffffffffffffffffffffffffffffffffffffffff1681565b600080610792610cf0565b61079a610cf0565b6002866040518082805190602001908083835b6020831015156107d257805182526020820191506020810190506020830392506107ad565b6001836020036101000a0380198251168184511680821785525050505050509050019150509081526020016040518091039020856040518082805190602001908083835b60208310151561083b5780518252602082019150602081019050602083039250610816565b6001836020036101000a038019825116818451168082178552505050505050905001915050908152602001604051809103902060009054906101000a900460ff1615610989576001866040518082805190602001908083835b6020831015156108b95780518252602082019150602081019050602083039250610894565b6001836020036101000a0380198251168184511680821785525050505050509050019150509081526020016040518091039020856040518082805190602001908083835b60208310151561092257805182526020820191506020810190506020830392506108fd565b6001836020036101000a03801982511681845116808217855250505050505090500191505090815260200160405180910390206040805190810160405290816000820154815260200160018201548152505091508160000151826020015193509350610b86565b6002856040518082805190602001908083835b6020831015156109c1578051825260208201915060208101905060208303925061099c565b6001836020036101000a0380198251168184511680821785525050505050509050019150509081526020016040518091039020866040518082805190602001908083835b602083101515610a2a5780518252602082019150602081019050602083039250610a05565b6001836020036101000a038019825116818451168082178552505050505050905001915050908152602001604051809103902060009054906101000a900460ff1615610b78576001856040518082805190602001908083835b602083101515610aa85780518252602082019150602081019050602083039250610a83565b6001836020036101000a0380198251168184511680821785525050505050509050019150509081526020016040518091039020866040518082805190602001908083835b602083101515610b115780518252602082019150602081019050602083039250610aec565b6001836020036101000a03801982511681845116808217855250505050505090500191505090815260200160405180910390206040805190810160405290816000820154815260200160018201548152505090508060200151816000015193509350610b86565b600080819150809050935093505b50509250929050565b6000809054906101000a900473ffffffffffffffffffffffffffffffffffffffff1673ffffffffffffffffffffffffffffffffffffffff163373ffffffffffffffffffffffffffffffffffffffff16141515610bea57600080fd5b610bf381610bf6565b50565b600073ffffffffffffffffffffffffffffffffffffffff168173ffffffffffffffffffffffffffffffffffffffff1614151515610c3257600080fd5b8073ffffffffffffffffffffffffffffffffffffffff166000809054906101000a900473ffffffffffffffffffffffffffffffffffffffff1673ffffffffffffffffffffffffffffffffffffffff167f8be0079c531659141344cd1fd0a4f28419497f9722a3daafe3b4186f6b6457e060405160405180910390a3806000806101000a81548173ffffffffffffffffffffffffffffffffffffffff021916908373ffffffffffffffffffffffffffffffffffffffff16021790555050565b6040805190810160405280600081526020016000815250905600a165627a7a723058209833c92620db204fb576d5e3ab0fd7f0618e3eca18b8aca6af18ffa8e9baeafb0029",
  "source": "pragma solidity ^0.4.23;\n\nimport 'zeppelin-solidity/contracts/ownership/Ownable.sol';\n\ncontract ExchangeRates is Ownable {\n    struct RateFactor {\n        uint256 factor1;\n        uint256 factor2;\n    }\n\n    event SetRate(\n        string ccy1,\n        uint256 rateFactor1,\n        string ccy2,\n        uint256 rateFactor2\n    );\n\n    /**\n     * Map that stores exchange rates in the following form:\n     *  ccy1 => ccy2 => (factor1, factor2)\n     * The conversion formula is: v1*factor1 = v2*factor2\n     */\n    mapping(string => mapping(string => RateFactor)) rates;\n    mapping(string => mapping(string => bool)) existingRates;\n\n    constructor() public{\n\n    }\n\n    function setRate(string _ccy1, uint256 _rateFactor1, string _ccy2, uint256 _rateFactor2) public onlyOwner returns (bool){\n        require(_rateFactor1 !=0 && _rateFactor2 != 0);\n        RateFactor memory rf = RateFactor({\n            factor1 : _rateFactor1,\n            factor2 : _rateFactor2\n            });\n        rates[_ccy1][_ccy2] = rf;\n        existingRates[_ccy1][_ccy2] = true;\n        emit SetRate(_ccy1, _rateFactor1, _ccy2, _rateFactor2);\n        return true;\n    }\n\n    function getRate(string _ccy1, string _ccy2) public view returns (uint256 rateFactor1, uint256 rateFactor2){\n        if (existingRates[_ccy1][_ccy2]) {\n            RateFactor memory rf1 = rates[_ccy1][_ccy2];\n            return (rf1.factor1, rf1.factor2);\n        } else if (existingRates[_ccy2][_ccy1]) {\n            RateFactor memory rf2 = rates[_ccy2][_ccy1];\n            return (rf2.factor2, rf2.factor1);\n        } else {\n            return (0, 0);\n        }\n    }\n}\n",
  "sourcePath": "/Users/tuanvd/projects/dloyalty/pen-eth-gateway/contracts/ExchangeRates.sol",
  "compiler": {
    "name": "solc",
    "version": "0.4.24+commit.e67f0147.Emscripten.clang"
  },
  "schemaVersion": "2.0.1",
  "updatedAt": "2019-05-06T08:06:56.589Z"
}